{
  "_format": "hh-sol-artifact-1",
  "contractName": "AvalaunchSale",
  "sourceName": "contracts/sales/AvalaunchSale.sol",
  "abi": [
    {
      "inputs": [
        {
          "internalType": "address",
          "name": "_admin",
          "type": "address"
        },
        {
          "internalType": "address",
          "name": "_allocationStaking",
          "type": "address"
        }
      ],
      "stateMutability": "nonpayable",
      "type": "constructor"
    },
    {
      "anonymous": false,
      "inputs": [
        {
          "indexed": false,
          "internalType": "uint256",
          "name": "roundId",
          "type": "uint256"
        },
        {
          "indexed": false,
          "internalType": "uint256",
          "name": "maxParticipation",
          "type": "uint256"
        }
      ],
      "name": "MaxParticipationSet",
      "type": "event"
    },
    {
      "anonymous": false,
      "inputs": [
        {
          "indexed": false,
          "internalType": "address",
          "name": "user",
          "type": "address"
        },
        {
          "indexed": false,
          "internalType": "uint256",
          "name": "amountRefunded",
          "type": "uint256"
        }
      ],
      "name": "RegistrationAVAXRefunded",
      "type": "event"
    },
    {
      "anonymous": false,
      "inputs": [
        {
          "indexed": false,
          "internalType": "uint256",
          "name": "registrationTimeStarts",
          "type": "uint256"
        },
        {
          "indexed": false,
          "internalType": "uint256",
          "name": "registrationTimeEnds",
          "type": "uint256"
        }
      ],
      "name": "RegistrationTimeSet",
      "type": "event"
    },
    {
      "anonymous": false,
      "inputs": [
        {
          "indexed": false,
          "internalType": "uint256",
          "name": "roundId",
          "type": "uint256"
        },
        {
          "indexed": false,
          "internalType": "uint256",
          "name": "startTime",
          "type": "uint256"
        },
        {
          "indexed": false,
          "internalType": "uint256",
          "name": "maxParticipation",
          "type": "uint256"
        }
      ],
      "name": "RoundAdded",
      "type": "event"
    },
    {
      "anonymous": false,
      "inputs": [
        {
          "indexed": false,
          "internalType": "address",
          "name": "saleOwner",
          "type": "address"
        },
        {
          "indexed": false,
          "internalType": "uint256",
          "name": "tokenPriceInAVAX",
          "type": "uint256"
        },
        {
          "indexed": false,
          "internalType": "uint256",
          "name": "amountOfTokensToSell",
          "type": "uint256"
        },
        {
          "indexed": false,
          "internalType": "uint256",
          "name": "saleEnd",
          "type": "uint256"
        },
        {
          "indexed": false,
          "internalType": "uint256",
          "name": "tokensUnlockTime",
          "type": "uint256"
        }
      ],
      "name": "SaleCreated",
      "type": "event"
    },
    {
      "anonymous": false,
      "inputs": [
        {
          "indexed": false,
          "internalType": "uint256",
          "name": "newPrice",
          "type": "uint256"
        }
      ],
      "name": "TokenPriceSet",
      "type": "event"
    },
    {
      "anonymous": false,
      "inputs": [
        {
          "indexed": false,
          "internalType": "address",
          "name": "user",
          "type": "address"
        },
        {
          "indexed": false,
          "internalType": "uint256",
          "name": "amount",
          "type": "uint256"
        }
      ],
      "name": "TokensSold",
      "type": "event"
    },
    {
      "anonymous": false,
      "inputs": [
        {
          "indexed": false,
          "internalType": "address",
          "name": "user",
          "type": "address"
        },
        {
          "indexed": false,
          "internalType": "uint256",
          "name": "amount",
          "type": "uint256"
        }
      ],
      "name": "TokensWithdrawn",
      "type": "event"
    },
    {
      "anonymous": false,
      "inputs": [
        {
          "indexed": false,
          "internalType": "address",
          "name": "user",
          "type": "address"
        },
        {
          "indexed": false,
          "internalType": "uint256",
          "name": "roundId",
          "type": "uint256"
        }
      ],
      "name": "UserRegistered",
      "type": "event"
    },
    {
      "inputs": [
        {
          "internalType": "address",
          "name": "",
          "type": "address"
        }
      ],
      "name": "addressToRoundRegisteredFor",
      "outputs": [
        {
          "internalType": "uint256",
          "name": "",
          "type": "uint256"
        }
      ],
      "stateMutability": "view",
      "type": "function"
    },
    {
      "inputs": [],
      "name": "admin",
      "outputs": [
        {
          "internalType": "contract IAdmin",
          "name": "",
          "type": "address"
        }
      ],
      "stateMutability": "view",
      "type": "function"
    },
    {
      "inputs": [],
      "name": "allocationStakingContract",
      "outputs": [
        {
          "internalType": "contract IAllocationStaking",
          "name": "",
          "type": "address"
        }
      ],
      "stateMutability": "view",
      "type": "function"
    },
    {
      "inputs": [],
      "name": "depositTokens",
      "outputs": [],
      "stateMutability": "nonpayable",
      "type": "function"
    },
    {
      "inputs": [
        {
          "internalType": "uint256",
          "name": "timeToAdd",
          "type": "uint256"
        }
      ],
      "name": "extendRegistrationPeriod",
      "outputs": [],
      "stateMutability": "nonpayable",
      "type": "function"
    },
    {
      "inputs": [],
      "name": "factory",
      "outputs": [
        {
          "internalType": "contract ISalesFactory",
          "name": "",
          "type": "address"
        }
      ],
      "stateMutability": "view",
      "type": "function"
    },
    {
      "inputs": [],
      "name": "getCurrentRound",
      "outputs": [
        {
          "internalType": "uint256",
          "name": "",
          "type": "uint256"
        }
      ],
      "stateMutability": "view",
      "type": "function"
    },
    {
      "inputs": [],
      "name": "getNumberOfRegisteredUsers",
      "outputs": [
        {
          "internalType": "uint256",
          "name": "",
          "type": "uint256"
        }
      ],
      "stateMutability": "view",
      "type": "function"
    },
    {
      "inputs": [
        {
          "internalType": "address",
          "name": "_user",
          "type": "address"
        }
      ],
      "name": "getParticipation",
      "outputs": [
        {
          "internalType": "uint256",
          "name": "",
          "type": "uint256"
        },
        {
          "internalType": "uint256",
          "name": "",
          "type": "uint256"
        },
        {
          "internalType": "uint256",
          "name": "",
          "type": "uint256"
        },
        {
          "internalType": "uint256",
          "name": "",
          "type": "uint256"
        },
        {
          "internalType": "bool[]",
          "name": "",
          "type": "bool[]"
        }
      ],
      "stateMutability": "view",
      "type": "function"
    },
    {
      "inputs": [],
      "name": "getVestingInfo",
      "outputs": [
        {
          "internalType": "uint256[]",
          "name": "",
          "type": "uint256[]"
        },
        {
          "internalType": "uint256[]",
          "name": "",
          "type": "uint256[]"
        }
      ],
      "stateMutability": "view",
      "type": "function"
    },
    {
      "inputs": [
        {
          "internalType": "address",
          "name": "",
          "type": "address"
        }
      ],
      "name": "isParticipated",
      "outputs": [
        {
          "internalType": "bool",
          "name": "",
          "type": "bool"
        }
      ],
      "stateMutability": "view",
      "type": "function"
    },
    {
      "inputs": [],
      "name": "maxVestingTimeShift",
      "outputs": [
        {
          "internalType": "uint256",
          "name": "",
          "type": "uint256"
        }
      ],
      "stateMutability": "view",
      "type": "function"
    },
    {
      "inputs": [],
      "name": "numberOfParticipants",
      "outputs": [
        {
          "internalType": "uint256",
          "name": "",
          "type": "uint256"
        }
      ],
      "stateMutability": "view",
      "type": "function"
    },
    {
      "inputs": [],
      "name": "one",
      "outputs": [
        {
          "internalType": "uint256",
          "name": "",
          "type": "uint256"
        }
      ],
      "stateMutability": "view",
      "type": "function"
    },
    {
      "inputs": [
        {
          "internalType": "uint256",
          "name": "amount",
          "type": "uint256"
        },
        {
          "internalType": "uint256",
          "name": "amountXavaToBurn",
          "type": "uint256"
        },
        {
          "internalType": "uint256",
          "name": "roundId",
          "type": "uint256"
        }
      ],
      "name": "participate",
      "outputs": [],
      "stateMutability": "payable",
      "type": "function"
    },
    {
      "inputs": [],
      "name": "portionVestingPrecision",
      "outputs": [
        {
          "internalType": "uint256",
          "name": "",
          "type": "uint256"
        }
      ],
      "stateMutability": "view",
      "type": "function"
    },
    {
      "inputs": [
        {
          "internalType": "uint256",
          "name": "timeToShift",
          "type": "uint256"
        }
      ],
      "name": "postponeSale",
      "outputs": [],
      "stateMutability": "nonpayable",
      "type": "function"
    },
    {
      "inputs": [
        {
          "internalType": "uint256",
          "name": "roundId",
          "type": "uint256"
        }
      ],
      "name": "registerForSale",
      "outputs": [],
      "stateMutability": "payable",
      "type": "function"
    },
    {
      "inputs": [],
      "name": "registration",
      "outputs": [
        {
          "internalType": "uint256",
          "name": "registrationTimeStarts",
          "type": "uint256"
        },
        {
          "internalType": "uint256",
          "name": "registrationTimeEnds",
          "type": "uint256"
        },
        {
          "internalType": "uint256",
          "name": "numberOfRegistrants",
          "type": "uint256"
        }
      ],
      "stateMutability": "view",
      "type": "function"
    },
    {
      "inputs": [],
      "name": "registrationDepositAVAX",
      "outputs": [
        {
          "internalType": "uint256",
          "name": "",
          "type": "uint256"
        }
      ],
      "stateMutability": "view",
      "type": "function"
    },
    {
      "inputs": [],
      "name": "registrationFees",
      "outputs": [
        {
          "internalType": "uint256",
          "name": "",
          "type": "uint256"
        }
      ],
      "stateMutability": "view",
      "type": "function"
    },
    {
      "inputs": [
        {
          "internalType": "uint256",
          "name": "",
          "type": "uint256"
        }
      ],
      "name": "roundIdToRound",
      "outputs": [
        {
          "internalType": "uint256",
          "name": "startTime",
          "type": "uint256"
        },
        {
          "internalType": "uint256",
          "name": "maxParticipation",
          "type": "uint256"
        }
      ],
      "stateMutability": "view",
      "type": "function"
    },
    {
      "inputs": [
        {
          "internalType": "uint256",
          "name": "",
          "type": "uint256"
        }
      ],
      "name": "roundIds",
      "outputs": [
        {
          "internalType": "uint256",
          "name": "",
          "type": "uint256"
        }
      ],
      "stateMutability": "view",
      "type": "function"
    },
    {
      "inputs": [],
      "name": "sale",
      "outputs": [
        {
          "internalType": "contract IERC20",
          "name": "token",
          "type": "address"
        },
        {
          "internalType": "bool",
          "name": "isCreated",
          "type": "bool"
        },
        {
          "internalType": "bool",
          "name": "earningsWithdrawn",
          "type": "bool"
        },
        {
          "internalType": "bool",
          "name": "leftoverWithdrawn",
          "type": "bool"
        },
        {
          "internalType": "bool",
          "name": "tokensDeposited",
          "type": "bool"
        },
        {
          "internalType": "address",
          "name": "saleOwner",
          "type": "address"
        },
        {
          "internalType": "uint256",
          "name": "tokenPriceInAVAX",
          "type": "uint256"
        },
        {
          "internalType": "uint256",
          "name": "amountOfTokensToSell",
          "type": "uint256"
        },
        {
          "internalType": "uint256",
          "name": "totalTokensSold",
          "type": "uint256"
        },
        {
          "internalType": "uint256",
          "name": "totalAVAXRaised",
          "type": "uint256"
        },
        {
          "internalType": "uint256",
          "name": "saleEnd",
          "type": "uint256"
        },
        {
          "internalType": "uint256",
          "name": "tokensUnlockTime",
          "type": "uint256"
        }
      ],
      "stateMutability": "view",
      "type": "function"
    },
    {
      "inputs": [
        {
          "internalType": "uint256[]",
          "name": "rounds",
          "type": "uint256[]"
        },
        {
          "internalType": "uint256[]",
          "name": "caps",
          "type": "uint256[]"
        }
      ],
      "name": "setCapPerRound",
      "outputs": [],
      "stateMutability": "nonpayable",
      "type": "function"
    },
    {
      "inputs": [
        {
          "internalType": "uint256",
          "name": "_registrationTimeStarts",
          "type": "uint256"
        },
        {
          "internalType": "uint256",
          "name": "_registrationTimeEnds",
          "type": "uint256"
        }
      ],
      "name": "setRegistrationTime",
      "outputs": [],
      "stateMutability": "nonpayable",
      "type": "function"
    },
    {
      "inputs": [
        {
          "internalType": "uint256[]",
          "name": "startTimes",
          "type": "uint256[]"
        },
        {
          "internalType": "uint256[]",
          "name": "maxParticipations",
          "type": "uint256[]"
        }
      ],
      "name": "setRounds",
      "outputs": [],
      "stateMutability": "nonpayable",
      "type": "function"
    },
    {
      "inputs": [
        {
          "internalType": "address",
          "name": "_token",
          "type": "address"
        },
        {
          "internalType": "address",
          "name": "_saleOwner",
          "type": "address"
        },
        {
          "internalType": "uint256",
          "name": "_tokenPriceInAVAX",
          "type": "uint256"
        },
        {
          "internalType": "uint256",
          "name": "_amountOfTokensToSell",
          "type": "uint256"
        },
        {
          "internalType": "uint256",
          "name": "_saleEnd",
          "type": "uint256"
        },
        {
          "internalType": "uint256",
          "name": "_tokensUnlockTime",
          "type": "uint256"
        },
        {
          "internalType": "uint256",
          "name": "_portionVestingPrecision",
          "type": "uint256"
        },
        {
          "internalType": "uint256",
          "name": "_stakingRoundId",
          "type": "uint256"
        },
        {
          "internalType": "uint256",
          "name": "_registrationDepositAVAX",
          "type": "uint256"
        }
      ],
      "name": "setSaleParams",
      "outputs": [],
      "stateMutability": "nonpayable",
      "type": "function"
    },
    {
      "inputs": [
        {
          "internalType": "address",
          "name": "saleToken",
          "type": "address"
        }
      ],
      "name": "setSaleToken",
      "outputs": [],
      "stateMutability": "nonpayable",
      "type": "function"
    },
    {
      "inputs": [
        {
          "internalType": "uint256[]",
          "name": "_unlockingTimes",
          "type": "uint256[]"
        },
        {
          "internalType": "uint256[]",
          "name": "_percents",
          "type": "uint256[]"
        },
        {
          "internalType": "uint256",
          "name": "_maxVestingTimeShift",
          "type": "uint256"
        }
      ],
      "name": "setVestingParams",
      "outputs": [],
      "stateMutability": "nonpayable",
      "type": "function"
    },
    {
      "inputs": [
        {
          "internalType": "uint256",
          "name": "timeToShift",
          "type": "uint256"
        }
      ],
      "name": "shiftVestingUnlockingTimes",
      "outputs": [],
      "stateMutability": "nonpayable",
      "type": "function"
    },
    {
      "inputs": [],
      "name": "stakingRoundId",
      "outputs": [
        {
          "internalType": "uint256",
          "name": "",
          "type": "uint256"
        }
      ],
      "stateMutability": "view",
      "type": "function"
    },
    {
      "inputs": [
        {
          "internalType": "uint256",
          "name": "price",
          "type": "uint256"
        }
      ],
      "name": "updateTokenPriceInAVAX",
      "outputs": [],
      "stateMutability": "nonpayable",
      "type": "function"
    },
    {
      "inputs": [
        {
          "internalType": "address",
          "name": "",
          "type": "address"
        }
      ],
      "name": "userToParticipation",
      "outputs": [
        {
          "internalType": "uint256",
          "name": "amountBought",
          "type": "uint256"
        },
        {
          "internalType": "uint256",
          "name": "amountAVAXPaid",
          "type": "uint256"
        },
        {
          "internalType": "uint256",
          "name": "timeParticipated",
          "type": "uint256"
        },
        {
          "internalType": "uint256",
          "name": "roundId",
          "type": "uint256"
        }
      ],
      "stateMutability": "view",
      "type": "function"
    },
    {
      "inputs": [
        {
          "internalType": "uint256",
          "name": "",
          "type": "uint256"
        }
      ],
      "name": "vestingPercentPerPortion",
      "outputs": [
        {
          "internalType": "uint256",
          "name": "",
          "type": "uint256"
        }
      ],
      "stateMutability": "view",
      "type": "function"
    },
    {
      "inputs": [
        {
          "internalType": "uint256",
          "name": "",
          "type": "uint256"
        }
      ],
      "name": "vestingPortionsUnlockTime",
      "outputs": [
        {
          "internalType": "uint256",
          "name": "",
          "type": "uint256"
        }
      ],
      "stateMutability": "view",
      "type": "function"
    },
    {
      "inputs": [],
      "name": "withdrawEarnings",
      "outputs": [],
      "stateMutability": "nonpayable",
      "type": "function"
    },
    {
      "inputs": [],
      "name": "withdrawEarningsAndLeftover",
      "outputs": [],
      "stateMutability": "nonpayable",
      "type": "function"
    },
    {
      "inputs": [],
      "name": "withdrawLeftover",
      "outputs": [],
      "stateMutability": "nonpayable",
      "type": "function"
    },
    {
      "inputs": [
        {
          "internalType": "uint256[]",
          "name": "portionIds",
          "type": "uint256[]"
        }
      ],
      "name": "withdrawMultiplePortions",
      "outputs": [],
      "stateMutability": "nonpayable",
      "type": "function"
    },
    {
      "inputs": [],
      "name": "withdrawRegistrationFees",
      "outputs": [],
      "stateMutability": "nonpayable",
      "type": "function"
    },
    {
      "inputs": [
        {
          "internalType": "uint256",
          "name": "portionId",
          "type": "uint256"
        }
      ],
      "name": "withdrawTokens",
      "outputs": [],
      "stateMutability": "nonpayable",
      "type": "function"
    },
    {
      "inputs": [],
      "name": "withdrawUnusedFunds",
      "outputs": [],
      "stateMutability": "nonpayable",
      "type": "function"
    },
    {
      "stateMutability": "payable",
      "type": "receive"
    }
  ],
  "bytecode": "0x60806040523480156200001157600080fd5b5060405162003e2138038062003e21833981810160405260408110156200003757600080fd5b5080516020909101516001600160a01b0382166200005457600080fd5b6001600160a01b0381166200006857600080fd5b600280546001600160a01b039384166001600160a01b0319918216179091556001805482163317905560008054929093169116179055613d7380620000ae6000396000f3fe6080604052600436106102605760003560e01c8063a29f481c11610144578063ccc171f5116100b6578063e099cf641161007a578063e099cf6414610c1e578063e6dd299f14610c4e578063e7b1d75e14610c63578063efac32bd14610c8d578063f1ef7ff214610ca2578063f851a44014610ccc57610267565b8063ccc171f5146109cd578063cf5b8d4b146109e2578063d937d45614610a29578063da4d4fbf14610b5b578063dc25a30014610b7057610267565b8063b73c6ce911610108578063b73c6ce91461080b578063c1c5c61414610820578063c45a015514610835578063c53ced891461084a578063c758174d1461085f578063cad925ef1461092a57610267565b8063a29f481c1461076f578063a32bf597146107a2578063a525d237146107b7578063ab7589b5146107cc578063abee6927146107e157610267565b80635c997961116101dd57806376750f2c116101a157806376750f2c1461065f5780637c4b414d146106c8578063899a27c8146106dd578063901717d11461070657806390a4cb9b1461071b578063927f6aee1461074557610267565b80635c997961146104d55780635e7464f6146104ea5780636ad1fe0214610543578063718af7e6146105cf5780637417040e1461064a57610267565b8063399ed97c11610224578063399ed97c1461034d5780633dad431114610418578063443bd1d01461045b5780634bd6ef4c1461048e5780635164d871146104ab57610267565b8063059ea1721461026c578063110b9c751461029d5780631f11cb1e146102e25780632a7c35de1461030e578063315a095d1461032357610267565b3661026757005b600080fd5b34801561027857600080fd5b50610281610ce1565b604080516001600160a01b039092168252519081900360200190f35b3480156102a957600080fd5b506102d0600480360360208110156102c057600080fd5b50356001600160a01b0316610cf0565b60408051918252519081900360200190f35b3480156102ee57600080fd5b5061030c6004803603602081101561030557600080fd5b5035610d02565b005b34801561031a57600080fd5b506102d0610eda565b34801561032f57600080fd5b5061030c6004803603602081101561034657600080fd5b5035610ee0565b34801561035957600080fd5b5061030c6004803603604081101561037057600080fd5b810190602081018135600160201b81111561038a57600080fd5b82018360208201111561039c57600080fd5b803590602001918460208302840111600160201b831117156103bd57600080fd5b919390929091602081019035600160201b8111156103da57600080fd5b8201836020820111156103ec57600080fd5b803590602001918460208302840111600160201b8311171561040d57600080fd5b5090925090506110b1565b34801561042457600080fd5b506104426004803603602081101561043b57600080fd5b50356113be565b6040805192835260208301919091528051918290030190f35b34801561046757600080fd5b506104706113d7565b60408051938452602084019290925282820152519081900360600190f35b61030c600480360360208110156104a457600080fd5b50356113e3565b3480156104b757600080fd5b5061030c600480360360208110156104ce57600080fd5b5035611663565b3480156104e157600080fd5b506102d061179f565b3480156104f657600080fd5b5061051d6004803603602081101561050d57600080fd5b50356001600160a01b03166117a5565b604080519485526020850193909352838301919091526060830152519081900360800190f35b34801561054f57600080fd5b506105586117cc565b604080516001600160a01b039d8e1681529b151560208d01529915158b8b015297151560608b015295151560808a01529390981660a088015260c087019190915260e08601526101008501959095526101208401949094526101408301939093526101608201929092529051908190036101800190f35b3480156105db57600080fd5b5061030c600480360360208110156105f257600080fd5b810190602081018135600160201b81111561060c57600080fd5b82018360208201111561061e57600080fd5b803590602001918460208302840111600160201b8311171561063f57600080fd5b509092509050611829565b34801561065657600080fd5b506102d06119a1565b34801561066b57600080fd5b5061030c600480360361012081101561068357600080fd5b506001600160a01b03813581169160208101359091169060408101359060608101359060808101359060a08101359060c08101359060e08101359061010001356119a7565b3480156106d457600080fd5b5061030c611cbf565b61030c600480360360608110156106f357600080fd5b5080359060208101359060400135611dab565b34801561071257600080fd5b506102d0612291565b34801561072757600080fd5b506102d06004803603602081101561073e57600080fd5b503561229d565b34801561075157600080fd5b506102d06004803603602081101561076857600080fd5b50356122bb565b34801561077b57600080fd5b5061030c6004803603602081101561079257600080fd5b50356001600160a01b03166122c8565b3480156107ae57600080fd5b506102d06123b2565b3480156107c357600080fd5b5061030c61247b565b3480156107d857600080fd5b506102d06124df565b3480156107ed57600080fd5b5061030c6004803603602081101561080457600080fd5b50356124e5565b34801561081757600080fd5b5061030c612640565b34801561082c57600080fd5b506102d06126a4565b34801561084157600080fd5b506102816126aa565b34801561085657600080fd5b506102d06126b9565b34801561086b57600080fd5b5061030c6004803603604081101561088257600080fd5b810190602081018135600160201b81111561089c57600080fd5b8201836020820111156108ae57600080fd5b803590602001918460208302840111600160201b831117156108cf57600080fd5b919390929091602081019035600160201b8111156108ec57600080fd5b8201836020820111156108fe57600080fd5b803590602001918460208302840111600160201b8311171561091f57600080fd5b5090925090506126bf565b34801561093657600080fd5b5061095d6004803603602081101561094d57600080fd5b50356001600160a01b031661295d565b6040518086815260200185815260200184815260200183815260200180602001828103825283818151815260200191508051906020019060200280838360005b838110156109b557818101518382015260200161099d565b50505050905001965050505050505060405180910390f35b3480156109d957600080fd5b506102d0612a54565b3480156109ee57600080fd5b50610a1560048036036020811015610a0557600080fd5b50356001600160a01b0316612a5a565b604080519115158252519081900360200190f35b348015610a3557600080fd5b5061030c60048036036060811015610a4c57600080fd5b810190602081018135600160201b811115610a6657600080fd5b820183602082011115610a7857600080fd5b803590602001918460208302840111600160201b83111715610a9957600080fd5b9190808060200260200160405190810160405280939291908181526020018383602002808284376000920191909152509295949360208101935035915050600160201b811115610ae857600080fd5b820183602082011115610afa57600080fd5b803590602001918460208302840111600160201b83111715610b1b57600080fd5b9190808060200260200160405190810160405280939291908181526020018383602002808284376000920191909152509295505091359250612a6f915050565b348015610b6757600080fd5b5061030c612cce565b348015610b7c57600080fd5b50610b85612d32565b604051808060200180602001838103835285818151815260200191508051906020019060200280838360005b83811015610bc9578181015183820152602001610bb1565b50505050905001838103825284818151815260200191508051906020019060200280838360005b83811015610c08578181015183820152602001610bf0565b5050505090500194505050505060405180910390f35b348015610c2a57600080fd5b5061030c60048036036040811015610c4157600080fd5b5080359060200135612de5565b348015610c5a57600080fd5b5061030c612f6b565b348015610c6f57600080fd5b5061030c60048036036020811015610c8657600080fd5b5035613068565b348015610c9957600080fd5b5061030c6131a0565b348015610cae57600080fd5b506102d060048036036020811015610cc557600080fd5b50356132fd565b348015610cd857600080fd5b5061028161330a565b6000546001600160a01b031681565b60126020526000908152604090205481565b60025460408051630935e01b60e21b815233600482015290516001600160a01b03909216916324d7806c91602480820192602092909190829003018186803b158015610d4d57600080fd5b505afa158015610d61573d6000803e3d6000fd5b505050506040513d6020811015610d7757600080fd5b5051610db45760405162461bcd60e51b8152600401808060200182810382526022815260200180613be36022913960400191505060405180910390fd5b60106000600f600081548110610dc657fe5b90600052602060002001548152602001908152602001600020600001544210610e36576040805162461bcd60e51b815260206004820152601a60248201527f31737420726f756e6420616c726561647920737461727465642e000000000000604482015290519081900360640190fd5b60005b600f54811015610ed657600060106000600f8481548110610e5657fe5b906000526020600020015481526020019081526020016000209050610e8883826000015461331990919063ffffffff16565b80825560095490840110610ecd5760405162461bcd60e51b815260040180806020018281038252602c815260200180613b3e602c913960400191505060405180910390fd5b50600101610e39565b5050565b60165481565b600a54421015610f37576040805162461bcd60e51b815260206004820181905260248201527f546f6b656e732063616e206e6f742062652077697468647261776e207965742e604482015290519081900360640190fd5b6015548110610f4557600080fd5b33600090815260116020526040902060048101805483908110610f6457fe5b90600052602060002090602091828204019190069054906101000a900460ff16158015610fa857504260148381548110610f9a57fe5b906000526020600020015411155b1561107a576001816004018381548110610fbe57fe5b90600052602060002090602091828204019190066101000a81548160ff021916908315150217905550600061101960165461101360158681548110610fff57fe5b60009182526020909120015485549061337c565b906133d5565b9050801561107457600354611038906001600160a01b0316338361343c565b604080513381526020810183905281517f6352c5382c4a4578e712449ca65e83cdb392d045dfcf1cad9615189db2da244b929181900390910190a15b50610ed6565b60405162461bcd60e51b8152600401808060200182810382526035815260200180613b8d6035913960400191505060405180910390fd5b60025460408051630935e01b60e21b815233600482015290516001600160a01b03909216916324d7806c91602480820192602092909190829003018186803b1580156110fc57600080fd5b505afa158015611110573d6000803e3d6000fd5b505050506040513d602081101561112657600080fd5b50516111635760405162461bcd60e51b8152600401808060200182810382526022815260200180613be36022913960400191505060405180910390fd5b600354600160a01b900460ff1661117957600080fd5b8281146111c5576040805162461bcd60e51b815260206004820152601560248201527439b2ba2937bab732399d102130b21034b7383aba1760591b604482015290519081900360640190fd5b600f54156112045760405162461bcd60e51b8152600401808060200182810382526022815260200180613af66022913960400191505060405180910390fd5b8261120e57600080fd5b6000805b848110156113b657600c5486868381811061122957fe5b905060200201351161123a57600080fd5b60095486868381811061124957fe5b905060200201351061125a57600080fd5b4286868381811061126757fe5b90506020020135101561127957600080fd5b600084848381811061128757fe5b905060200201351161129857600080fd5b818686838181106112a557fe5b90506020020135116112b657600080fd5b8585828181106112c257fe5b600f8054600181810183556000929092529085017f8d1108e10bcb7c27dddfc02ed9d693a074039d026cf4ea4240b40f7d581ac802909101819055602090910292909201359350611313905061398f565b604051806040016040528089898681811061132a57fe5b90506020020135815260200187878681811061134257fe5b60209081029290920135909252600085815260108252604090819020845180825585840151600190920182905582518881529384015282820152519293507f527ad3db8f604c215553922f1f63e784584f9129564774aef6c410bee0eef64792908190036060019150a15050600101611212565b505050505050565b6010602052600090815260409020805460019091015482565b600b54600c54600d5483565b60195434146114235760405162461bcd60e51b8152600401808060200182810382526024815260200180613c866024913960400191505060405180910390fd5b8061146e576040805162461bcd60e51b81526020600482015260166024820152752937bab7321024a21031b0b7103737ba10313290181760511b604482015290519081900360640190fd5b600f548111156114b8576040805162461bcd60e51b815260206004820152601060248201526f125b9d985b1a59081c9bdd5b99081a5960821b604482015290519081900360640190fd5b600b5442108015906114cc5750600c544211155b61151d576040805162461bcd60e51b815260206004820152601c60248201527f526567697374726174696f6e206761746520697320636c6f7365642e00000000604482015290519081900360640190fd5b336000908152601260205260409020541561157f576040805162461bcd60e51b815260206004820152601c60248201527f557365722063616e206e6f742072656769737465722074776963652e00000000604482015290519081900360640190fd5b33600090815260126020526040902081905560175481141561160c5760008054600954604080516339bc12b360e21b8152600481018590523360248201526044810192909252516001600160a01b039092169263e6f04acc9260648084019382900301818387803b1580156115f357600080fd5b505af1158015611607573d6000803e3d6000fd5b505050505b600d80546001019055601a546116229034613319565b601a55604080513381526020810183905281517fe29d35093005f4d575e1003753426b57a7f64378ba73332eef9c6ccc2b8decd6929181900390910190a150565b60025460408051630935e01b60e21b815233600482015290516001600160a01b03909216916324d7806c91602480820192602092909190829003018186803b1580156116ae57600080fd5b505afa1580156116c2573d6000803e3d6000fd5b505050506040513d60208110156116d857600080fd5b50516117155760405162461bcd60e51b8152600401808060200182810382526022815260200180613be36022913960400191505060405180910390fd5b60106000600f60008154811061172757fe5b60009182526020808320909101548352820192909252604001902054600c546117509083613319565b1061178c5760405162461bcd60e51b8152600401808060200182810382526029815260200180613c056029913960400191505060405180910390fd5b600c546117999082613319565b600c5550565b601a5481565b60116020526000908152604090208054600182015460028301546003909301549192909184565b600354600454600554600654600754600854600954600a546001600160a01b038089169860ff600160a01b8204811699600160a81b8304821699600160b01b8404831699600160b81b90940490921697931695909491939091908c565b336000908152601160205260408120815b8381101561194157600085858381811061185057fe5b905060200201359050601580549050811061186a57600080fd5b82600401818154811061187957fe5b90600052602060002090602091828204019190069054906101000a900460ff161580156118bd575042601482815481106118af57fe5b906000526020600020015411155b156119385760018360040182815481106118d357fe5b90600052602060002090602091828204019190066101000a81548160ff02191690831515021790555060006119286016546110136015858154811061191457fe5b60009182526020909120015487549061337c565b90506119348582613319565b9450505b5060010161183a565b50811561199b5760035461195f906001600160a01b0316338461343c565b604080513381526020810184905281517f6352c5382c4a4578e712449ca65e83cdb392d045dfcf1cad9615189db2da244b929181900390910190a15b50505050565b600e5481565b60025460408051630935e01b60e21b815233600482015290516001600160a01b03909216916324d7806c91602480820192602092909190829003018186803b1580156119f257600080fd5b505afa158015611a06573d6000803e3d6000fd5b505050506040513d6020811015611a1c57600080fd5b5051611a595760405162461bcd60e51b8152600401808060200182810382526022815260200180613be36022913960400191505060405180910390fd5b600354600160a01b900460ff1615611aa25760405162461bcd60e51b8152600401808060200182810382526027815260200180613c2e6027913960400191505060405180910390fd5b6001600160a01b038816611ae75760405162461bcd60e51b815260040180806020018281038252602f815260200180613cd4602f913960400191505060405180910390fd5b8615801590611af557508515155b8015611b0057504285115b8015611b0b57504284115b611b5c576040805162461bcd60e51b815260206004820152601860248201527f73657453616c65506172616d733a2042616420696e7075740000000000000000604482015290519081900360640190fd5b6064831015611bab576040805162461bcd60e51b8152602060048201526016602482015275053686f756c64206265206174206c65617374203130360541b604482015290519081900360640190fd5b60008211611c00576040805162461bcd60e51b815260206004820152601e60248201527f5374616b696e6720726f756e642049442063616e206e6f7420626520302e0000604482015290519081900360640190fd5b6003805460ff60a01b196001600160a01b03808d166001600160a01b03199384161791909116600160a01b17909255600480548b841692169190911790819055600589905560068890556009879055600a8690556019839055601685905560178490556040805191909216815260208101899052808201889052606081018790526080810186905290517f04015af06f31ecd628a4f9fd400d312fc7ae48fdfa0d1a26b3b9ade20971a86e9181900360a00190a1505050505050505050565b6004546001600160a01b03163314611d1b576040805162461bcd60e51b815260206004820152601a60248201527913db9b1e54d85b1953dddb995c8e8e8814995cdd1c9a58dd195960321b604482015290519081900360640190fd5b600354600160b81b900460ff1615611d7a576040805162461bcd60e51b815260206004820152601d60248201527f4465706f7369742063616e20626520646f6e65206f6e6c79206f6e6365000000604482015290519081900360640190fd5b6003805460ff60b81b1916600160b81b1790819055600654611da9916001600160a01b03169033903090613493565b565b80611df3576040805162461bcd60e51b81526020600482015260136024820152722937bab7321031b0b7103737ba10313290181760691b604482015290519081900360640190fd5b600081815260106020526040902060010154831115611e435760405162461bcd60e51b8152600401808060200182810382526031815260200180613c556031913960400191505060405180910390fd5b336000908152601260205260409020548114611ea6576040805162461bcd60e51b815260206004820152601d60248201527f4e6f74207265676973746572656420666f72207468697320726f756e64000000604482015290519081900360640190fd5b3360009081526013602052604090205460ff1615611f0b576040805162461bcd60e51b815260206004820152601f60248201527f557365722063616e207061727469636970617465206f6e6c79206f6e63652e00604482015290519081900360640190fd5b333214611f5f576040805162461bcd60e51b815260206004820152601b60248201527f4f6e6c792064697265637420636f6e74726163742063616c6c732e0000000000604482015290519081900360640190fd5b6000611f696123b2565b9050808214611fa95760405162461bcd60e51b8152600401808060200182810382526026815260200180613ad06026913960400191505060405180910390fd5b600554600090611fc59061101334670de0b6b3a764000061337c565b905060008111612011576040805162461bcd60e51b815260206004820152601260248201527143616e277420627579203020746f6b656e7360701b604482015290519081900360640190fd5b84811115612066576040805162461bcd60e51b815260206004820181905260248201527f547279696e6720746f20627579206d6f7265207468616e20616c6c6f7765642e604482015290519081900360640190fd5b6007546120739082613319565b6007556008546120839034613319565b60085560145460609067ffffffffffffffff811180156120a257600080fd5b506040519080825280602002602001820160405280156120cc578160200160208202803683370190505b5090506120d76139a9565b6040518060a0016040528084815260200134815260200142815260200186815260200183815250905060175485141561217857600080546040805163ee5dfcf160e01b815260048101849052336024820152604481018a905290516001600160a01b039092169263ee5dfcf19260648084019382900301818387803b15801561215f57600080fd5b505af1158015612173573d6000803e3d6000fd5b505050505b336000908152601160209081526040918290208351815581840151600182015591830151600283015560608301516003830155608083015180518493926121c69260048501929101906139d8565b5050336000908152601360205260409020805460ff19166001908117909155600e8054909101905550601954601a546121fe916134ed565b601a5560195461220f90339061354a565b60195460408051338152602081019290925280517f3745f7822014d22354d32c0f4437d13412c14e8207178c5e901f2c8a80069ea59281900390910190a1604080513381526020810185905281517f57d61f3ccd4ccd25ec5d234d6049553a586fac134c85c98d0b0d9d5724f4e43e929181900390910190a150505050505050565b670de0b6b3a764000081565b600f81815481106122aa57fe5b600091825260209091200154905081565b601581815481106122aa57fe5b60025460408051630935e01b60e21b815233600482015290516001600160a01b03909216916324d7806c91602480820192602092909190829003018186803b15801561231357600080fd5b505afa158015612327573d6000803e3d6000fd5b505050506040513d602081101561233d57600080fd5b505161237a5760405162461bcd60e51b8152600401808060200182810382526022815260200180613be36022913960400191505060405180910390fd5b6003546001600160a01b03161561239057600080fd5b600380546001600160a01b0319166001600160a01b0392909216919091179055565b6000806000905060106000600f6000815481106123cb57fe5b90600052602060002001548152602001908152602001600020600001544210156123f9576000915050612478565b600f546001820110801561243c575060106000600f836001018154811061241c57fe5b906000526020600020015481526020019081526020016000206000015442115b15612449576001016123f9565b600954421061245c576000915050612478565b600f818154811061246957fe5b90600052602060002001549150505b90565b6004546001600160a01b031633146124d7576040805162461bcd60e51b815260206004820152601a60248201527913db9b1e54d85b1953dddb995c8e8e8814995cdd1c9a58dd195960321b604482015290519081900360640190fd5b611da961360b565b600d5490565b60025460408051630935e01b60e21b815233600482015290516001600160a01b03909216916324d7806c91602480820192602092909190829003018186803b15801561253057600080fd5b505afa158015612544573d6000803e3d6000fd5b505050506040513d602081101561255a57600080fd5b50516125975760405162461bcd60e51b8152600401808060200182810382526022815260200180613be36022913960400191505060405180910390fd5b6000811180156125a8575060185481105b6125e35760405162461bcd60e51b815260040180806020018281038252603b815260200180613d03603b913960400191505060405180910390fd5b600060188190555b601454811015610ed65761261f826014838154811061260657fe5b906000526020600020015461331990919063ffffffff16565b6014828154811061262c57fe5b6000918252602090912001556001016125eb565b6004546001600160a01b0316331461269c576040805162461bcd60e51b815260206004820152601a60248201527913db9b1e54d85b1953dddb995c8e8e8814995cdd1c9a58dd195960321b604482015290519081900360640190fd5b611da9613679565b60195481565b6001546001600160a01b031681565b60175481565b60025460408051630935e01b60e21b815233600482015290516001600160a01b03909216916324d7806c91602480820192602092909190829003018186803b15801561270a57600080fd5b505afa15801561271e573d6000803e3d6000fd5b505050506040513d602081101561273457600080fd5b50516127715760405162461bcd60e51b8152600401808060200182810382526022815260200180613be36022913960400191505060405180910390fd5b60106000600f60008154811061278357fe5b906000526020600020015481526020019081526020016000206000015442106127f3576040805162461bcd60e51b815260206004820152601a60248201527f31737420726f756e6420616c726561647920737461727465642e000000000000604482015290519081900360640190fd5b828114612847576040805162461bcd60e51b815260206004820152601b60248201527f417272617973206c656e67746820697320646966666572656e742e0000000000604482015290519081900360640190fd5b60005b8381101561295657600083838381811061286057fe5b90506020020135116128b9576040805162461bcd60e51b815260206004820181905260248201527f43616e277420736574206d61782070617274696369706174696f6e20746f2030604482015290519081900360640190fd5b6000601060008787858181106128cb57fe5b90506020020135815260200190815260200160002090508383838181106128ee57fe5b60200291909101356001830155507f240c1dedad1ae51b69a581eb35e4f2e543307e4feffb5f52261f7c9e20baac8b86868481811061292957fe5b6001850154604080516020938402959095013585529184015280519283900301919050a15060010161284a565b5050505050565b600080600080606061296d6139a9565b6001600160a01b038716600090815260116020908152604091829020825160a08101845281548152600182015481840152600282015481850152600382015460608201526004820180548551818602810186019096528086529194929360808601939290830182828015612a2057602002820191906000526020600020906000905b825461010083900a900460ff1615158152602060019283018181049485019490930390920291018084116129ef5790505b5050509190925250508151602083015160408401516060850151608090950151929c919b5099509297509550909350505050565b60185481565b60136020526000908152604090205460ff1681565b60025460408051630935e01b60e21b815233600482015290516001600160a01b03909216916324d7806c91602480820192602092909190829003018186803b158015612aba57600080fd5b505afa158015612ace573d6000803e3d6000fd5b505050506040513d6020811015612ae457600080fd5b5051612b215760405162461bcd60e51b8152600401808060200182810382526022815260200180613be36022913960400191505060405180910390fd5b601554158015612b315750601454155b612b3a57600080fd5b8151835114612b4857600080fd5b600060165411612b895760405162461bcd60e51b8152600401808060200182810382526039815260200180613a976039913960400191505060405180910390fd5b62278d00811115612be1576040805162461bcd60e51b815260206004820152601960248201527f4d6178696d616c20736869667420697320333020646179732e00000000000000604482015290519081900360640190fd5b60188190556000805b8451811015612c77576014858281518110612c0157fe5b602090810291909101810151825460018101845560009384529190922001558351601590859083908110612c3157fe5b602090810291909101810151825460018101845560009384529190922001558351849082908110612c5e57fe5b6020026020010151820191508080600101915050612bea565b50601654811461199b576040805162461bcd60e51b815260206004820152601b60248201527f50657263656e7420646973747269627574696f6e2069737375652e0000000000604482015290519081900360640190fd5b6004546001600160a01b03163314612d2a576040805162461bcd60e51b815260206004820152601a60248201527913db9b1e54d85b1953dddb995c8e8e8814995cdd1c9a58dd195960321b604482015290519081900360640190fd5b6124d7613679565b6060806014601581805480602002602001604051908101604052809291908181526020018280548015612d8457602002820191906000526020600020905b815481526020019060010190808311612d70575b5050505050915080805480602002602001604051908101604052809291908181526020018280548015612dd657602002820191906000526020600020905b815481526020019060010190808311612dc2575b50505050509050915091509091565b60025460408051630935e01b60e21b815233600482015290516001600160a01b03909216916324d7806c91602480820192602092909190829003018186803b158015612e3057600080fd5b505afa158015612e44573d6000803e3d6000fd5b505050506040513d6020811015612e5a57600080fd5b5051612e975760405162461bcd60e51b8152600401808060200182810382526022815260200180613be36022913960400191505060405180910390fd5b600354600160a01b900460ff16612ead57600080fd5b600b5415612eba57600080fd5b428210158015612ec957508181115b612ed257600080fd5b6009548110612ee057600080fd5b600f5415612f225760106000600f600081548110612efa57fe5b90600052602060002001548152602001908152602001600020600001548110612f2257600080fd5b600b829055600c819055604080518381526020810183905281517faf6e91c17885891414abbe7fa95074976b3e429980b0d8790034468e69650dd9929181900390910190a15050565b60025460408051630935e01b60e21b815233600482015290516001600160a01b03909216916324d7806c91602480820192602092909190829003018186803b158015612fb657600080fd5b505afa158015612fca573d6000803e3d6000fd5b505050506040513d6020811015612fe057600080fd5b505161301d5760405162461bcd60e51b8152600401808060200182810382526022815260200180613be36022913960400191505060405180910390fd5b6003544790600090600160a81b900460ff1661303b5760085461303e565b60005b9050610ed63361306361305c601a548561331990919063ffffffff16565b85906134ed565b61354a565b60025460408051630935e01b60e21b815233600482015290516001600160a01b03909216916324d7806c91602480820192602092909190829003018186803b1580156130b357600080fd5b505afa1580156130c7573d6000803e3d6000fd5b505050506040513d60208110156130dd57600080fd5b505161311a5760405162461bcd60e51b8152600401808060200182810382526022815260200180613be36022913960400191505060405180910390fd5b60008111613165576040805162461bcd60e51b8152602060048201526013602482015272283934b1b29031b0b7103737ba10313290181760691b604482015290519081900360640190fd5b60058190556040805182815290517f4b59d61d9ffdc3db926d0ce7e06ebabb6bd1bf9dcdae262667e48be3682272169181900360200190a150565b60025460408051630935e01b60e21b815233600482015290516001600160a01b03909216916324d7806c91602480820192602092909190829003018186803b1580156131eb57600080fd5b505afa1580156131ff573d6000803e3d6000fd5b505050506040513d602081101561321557600080fd5b50516132525760405162461bcd60e51b8152600401808060200182810382526022815260200180613be36022913960400191505060405180910390fd5b6009544210156132a9576040805162461bcd60e51b815260206004820152601c60248201527f5265717569726520746861742073616c652068617320656e6465642e00000000604482015290519081900360640190fd5b6000601a54116132ea5760405162461bcd60e51b8152600401808060200182810382526023815260200180613b6a6023913960400191505060405180910390fd5b6132f633601a5461354a565b6000601a55565b601481815481106122aa57fe5b6002546001600160a01b031681565b600082820183811015613373576040805162461bcd60e51b815260206004820152601b60248201527f536166654d6174683a206164646974696f6e206f766572666c6f770000000000604482015290519081900360640190fd5b90505b92915050565b60008261338b57506000613376565b8282028284828161339857fe5b04146133735760405162461bcd60e51b8152600401808060200182810382526021815260200180613bc26021913960400191505060405180910390fd5b600080821161342b576040805162461bcd60e51b815260206004820152601a60248201527f536166654d6174683a206469766973696f6e206279207a65726f000000000000604482015290519081900360640190fd5b81838161343457fe5b049392505050565b604080516001600160a01b038416602482015260448082018490528251808303909101815260649091019091526020810180516001600160e01b031663a9059cbb60e01b17905261348e9084906136bf565b505050565b604080516001600160a01b0380861660248301528416604482015260648082018490528251808303909101815260849091019091526020810180516001600160e01b03166323b872dd60e01b17905261199b9085906136bf565b600082821115613544576040805162461bcd60e51b815260206004820152601e60248201527f536166654d6174683a207375627472616374696f6e206f766572666c6f770000604482015290519081900360640190fd5b50900390565b604080516000808252602082019092526001600160a01b0384169083906040518082805190602001908083835b602083106135965780518252601f199092019160209182019101613577565b6001836020036101000a03801982511681845116808217855250505050505090500191505060006040518083038185875af1925050503d80600081146135f8576040519150601f19603f3d011682016040523d82523d6000602084013e6135fd565b606091505b505090508061348e57600080fd5b60095442101561361a57600080fd5b600354600160b01b900460ff161561363157600080fd5b6003805460ff60b01b1916600160b01b17905560075460065460009161365791906134ed565b9050801561367657600354613676906001600160a01b0316338361343c565b50565b60095442101561368857600080fd5b600354600160a81b900460ff161561369f57600080fd5b6003805460ff60a81b1916600160a81b179055600854613676338261354a565b6060613714826040518060400160405280602081526020017f5361666545524332303a206c6f772d6c6576656c2063616c6c206661696c6564815250856001600160a01b03166137709092919063ffffffff16565b80519091501561348e5780806020019051602081101561373357600080fd5b505161348e5760405162461bcd60e51b815260040180806020018281038252602a815260200180613caa602a913960400191505060405180910390fd5b606061377f8484600085613789565b90505b9392505050565b6060824710156137ca5760405162461bcd60e51b8152600401808060200182810382526026815260200180613b186026913960400191505060405180910390fd5b6137d3856138e5565b613824576040805162461bcd60e51b815260206004820152601d60248201527f416464726573733a2063616c6c20746f206e6f6e2d636f6e7472616374000000604482015290519081900360640190fd5b60006060866001600160a01b031685876040518082805190602001908083835b602083106138635780518252601f199092019160209182019101613844565b6001836020036101000a03801982511681845116808217855250505050505090500191505060006040518083038185875af1925050503d80600081146138c5576040519150601f19603f3d011682016040523d82523d6000602084013e6138ca565b606091505b50915091506138da8282866138eb565b979650505050505050565b3b151590565b606083156138fa575081613782565b82511561390a5782518084602001fd5b8160405162461bcd60e51b81526004018080602001828103825283818151815260200191508051906020019080838360005b8381101561395457818101518382015260200161393c565b50505050905090810190601f1680156139815780820380516001836020036101000a031916815260200191505b509250505060405180910390fd5b604051806040016040528060008152602001600081525090565b6040518060a0016040528060008152602001600081526020016000815260200160008152602001606081525090565b82805482825590600052602060002090601f01602090048101928215613a6d5791602002820160005b83821115613a3e57835183826101000a81548160ff0219169083151502179055509260200192600101602081600001049283019260010302613a01565b8015613a6b5782816101000a81549060ff0219169055600101602081600001049283019260010302613a3e565b505b50613a79929150613a7d565b5090565b5b80821115613a7957805460ff19168155600101613a7e56fe53616665677561726420666f72206d616b696e6720737572652073657453616c65506172616d73206765742066697273742063616c6c65642e596f752063616e206e6f7420706172746963697061746520696e207468697320726f756e642e736574526f756e64733a20526f756e6473206172652073657420616c72656164792e416464726573733a20696e73756666696369656e742062616c616e636520666f722063616c6c53746172742074696d652063616e206e6f742062652067726561746572207468616e20656e642074696d652e4e6f206561726e696e67732066726f6d20726567697374726174696f6e20666565732e546f6b656e7320616c72656164792077697468647261776e206f7220706f7274696f6e206e6f7420756e6c6f636b6564207965742e536166654d6174683a206d756c7469706c69636174696f6e206f766572666c6f774f6e6c792061646d696e2063616e2063616c6c20746869732066756e6374696f6e2e526567697374726174696f6e20706572696f64206f766572666c6f77732073616c652073746172742e73657453616c65506172616d733a2053616c6520697320616c726561647920637265617465642e4f766572666c6f77696e67206d6178696d616c2070617274696369706174696f6e20666f72207468697320726f756e642e526567697374726174696f6e206465706f73697420646f6573206e6f74206d617463682e5361666545524332303a204552433230206f7065726174696f6e20646964206e6f74207375636365656473657453616c65506172616d733a2053616c65206f776e657220616464726573732063616e206e6f7420626520302e5368696674206d757374206265206e6f6e7a65726f20616e6420736d616c6c6572207468616e206d617856657374696e6754696d6553686966742ea26469706673582212204ae4fefca867fbe2d37338682f4f68d70d52c6b3a80c7b42f1aa2273c23520ae64736f6c634300060c0033",
  "linkReferences": {},
  "deployedLinkReferences": {}
}