{
  "_format": "hh-sol-artifact-1",
  "contractName": "Admin",
  "sourceName": "contracts/Admin.sol",
  "abi": [
    {
      "inputs": [
        {
          "internalType": "address[]",
          "name": "_admins",
          "type": "address[]"
        }
      ],
      "stateMutability": "nonpayable",
      "type": "constructor"
    },
    {
      "inputs": [
        {
          "internalType": "address",
          "name": "_adminAddress",
          "type": "address"
        }
      ],
      "name": "addAdmin",
      "outputs": [],
      "stateMutability": "nonpayable",
      "type": "function"
    },
    {
      "inputs": [
        {
          "internalType": "uint256",
          "name": "",
          "type": "uint256"
        }
      ],
      "name": "admins",
      "outputs": [
        {
          "internalType": "address",
          "name": "",
          "type": "address"
        }
      ],
      "stateMutability": "view",
      "type": "function"
    },
    {
      "inputs": [],
      "name": "getAllAdmins",
      "outputs": [
        {
          "internalType": "address[]",
          "name": "",
          "type": "address[]"
        }
      ],
      "stateMutability": "view",
      "type": "function"
    },
    {
      "inputs": [
        {
          "internalType": "address",
          "name": "",
          "type": "address"
        }
      ],
      "name": "isAdmin",
      "outputs": [
        {
          "internalType": "bool",
          "name": "",
          "type": "bool"
        }
      ],
      "stateMutability": "view",
      "type": "function"
    },
    {
      "inputs": [
        {
          "internalType": "address",
          "name": "_adminAddress",
          "type": "address"
        }
      ],
      "name": "removeAdmin",
      "outputs": [],
      "stateMutability": "nonpayable",
      "type": "function"
    }
  ],
  "bytecode": "0x608060405234801561001057600080fd5b506040516107953803806107958339818101604052602081101561003357600080fd5b810190808051604051939291908464010000000082111561005357600080fd5b90830190602082018581111561006857600080fd5b825186602082028301116401000000008211171561008557600080fd5b82525081516020918201928201910280838360005b838110156100b257818101518382015260200161009a565b5050505090500160405250505060005b81518110156101605760008282815181106100d957fe5b60209081029190910181015182546001808201855560009485529284200180546001600160a01b0319166001600160a01b0390921691909117905583519091829185908590811061012657fe5b6020908102919091018101516001600160a01b03168252810191909152604001600020805460ff19169115159190911790556001016100c2565b5050610624806101716000396000f3fe608060405234801561001057600080fd5b50600436106100575760003560e01c806314bfd6d01461005c5780631785f53c1461009557806324d7806c146100bd57806370480275146100f7578063e9523c971461011d575b600080fd5b6100796004803603602081101561007257600080fd5b5035610175565b604080516001600160a01b039092168252519081900360200190f35b6100bb600480360360208110156100ab57600080fd5b50356001600160a01b031661019c565b005b6100e3600480360360208110156100d357600080fd5b50356001600160a01b031661037d565b604080519115158252519081900360200190f35b6100bb6004803603602081101561010d57600080fd5b50356001600160a01b0316610392565b610125610505565b60408051602080825283518183015283519192839290830191858101910280838360005b83811015610161578181015183820152602001610149565b505050509050019250505060405180910390f35b6000818154811061018257fe5b6000918252602090912001546001600160a01b0316905081565b3360009081526001602052604090205460ff166101f7576040805162461bcd60e51b815260206004820152601460248201527327b7363c9030b236b4b71031b0b71031b0b6361760611b604482015290519081900360640190fd5b6001600160a01b03811660009081526001602052604090205460ff1661021c57600080fd5b60005460011061025d5760405162461bcd60e51b815260040180806020018281038252603a8152602001806105b5603a913960400191505060405180910390fd5b60005b816001600160a01b03166000828154811061027757fe5b6000918252602090912001546001600160a01b0316146102da576000548114156102d25760405162461bcd60e51b81526004018080602001828103825260238152602001806105926023913960400191505060405180910390fd5b600101610260565b6000805460001981019081106102ec57fe5b600091825260208220015481546001600160a01b0390911691908390811061031057fe5b600091825260208083209190910180546001600160a01b0319166001600160a01b039485161790559184168152600190915260408120805460ff1916905580548061035757fe5b600082815260209020810160001990810180546001600160a01b03191690550190555050565b60016020526000908152604090205460ff1681565b3360009081526001602052604090205460ff166103ed576040805162461bcd60e51b815260206004820152601460248201527327b7363c9030b236b4b71031b0b71031b0b6361760611b604482015290519081900360640190fd5b6001600160a01b0381166104325760405162461bcd60e51b815260040180806020018281038252602a815260200180610568602a913960400191505060405180910390fd5b6001600160a01b03811660009081526001602052604090205460ff16156104a0576040805162461bcd60e51b815260206004820152601e60248201527f5b524241435d203a2041646d696e20616c7265616479206578697374732e0000604482015290519081900360640190fd5b60008054600181810183557f290decd9548b62a8d60345a988386fc84ba6bc95484008f6362f93160ef3e56390910180546001600160a01b039094166001600160a01b031990941684179055918152602082905260409020805460ff19169091179055565b6060600080548060200260200160405190810160405280929190818152602001828054801561055d57602002820191906000526020600020905b81546001600160a01b0316815260019091019060200180831161053f575b505050505090509056fe5b524241435d203a2041646d696e206d75737420626520213d207468616e2030783020616464726573735061737365642061646d696e206164647265737320646f6573206e6f7420657869737443616e206e6f742072656d6f766520616c6c2061646d696e732073696e636520636f6e7472616374206265636f6d657320756e757361626c652ea264697066735822122016b65fa1873e763f93815204e3b2cc4952c1db4b051187cb2de46f2f00d7f31164736f6c634300060c0033",
  "linkReferences": {},
  "deployedLinkReferences": {}
}